{
  "contractName": "Crowdsale",
  "abi": [
    {
      "inputs": [
        {
          "name": "token",
          "type": "address"
        },
        {
          "name": "start",
          "type": "uint256"
        },
        {
          "name": "end",
          "type": "uint256"
        },
        {
          "name": "price",
          "type": "uint256"
        },
        {
          "name": "limit",
          "type": "uint256"
        }
      ],
      "payable": false,
      "stateMutability": "nonpayable",
      "type": "constructor"
    },
    {
      "payable": true,
      "stateMutability": "payable",
      "type": "fallback"
    },
    {
      "anonymous": false,
      "inputs": [
        {
          "indexed": false,
          "name": "beneficiary",
          "type": "address"
        },
        {
          "indexed": false,
          "name": "amount",
          "type": "uint256"
        }
      ],
      "name": "Buy",
      "type": "event"
    },
    {
      "constant": false,
      "inputs": [],
      "name": "buy",
      "outputs": [],
      "payable": true,
      "stateMutability": "payable",
      "type": "function"
    },
    {
      "constant": false,
      "inputs": [
        {
          "name": "beneficiary",
          "type": "address"
        }
      ],
      "name": "buyFor",
      "outputs": [],
      "payable": true,
      "stateMutability": "payable",
      "type": "function"
    },
    {
      "constant": false,
      "inputs": [
        {
          "name": "",
          "type": "address"
        },
        {
          "name": "_value",
          "type": "uint256"
        },
        {
          "name": "",
          "type": "bytes"
        }
      ],
      "name": "tokenFallback",
      "outputs": [],
      "payable": false,
      "stateMutability": "nonpayable",
      "type": "function"
    },
    {
      "constant": true,
      "inputs": [],
      "name": "availableBalance",
      "outputs": [
        {
          "name": "",
          "type": "uint256"
        }
      ],
      "payable": false,
      "stateMutability": "view",
      "type": "function"
    }
  ],
  "bytecode": "0x6060604052341561000f57600080fd5b60405160a08061061483398101604052808051906020019091908051906020019091908051906020019091908051906020019091908051906020019091905050846000806101000a81548173ffffffffffffffffffffffffffffffffffffffff021916908373ffffffffffffffffffffffffffffffffffffffff160217905550836001819055508260028190555081600381905550806004819055505050505050610555806100bf6000396000f300606060405260043610610062576000357c0100000000000000000000000000000000000000000000000000000000900463ffffffff1680636f0b518014610067578063a6f2ae3a14610095578063ab2f0e511461009f578063c0ee0b8a146100c8575b600080fd5b610093600480803573ffffffffffffffffffffffffffffffffffffffff1690602001909190505061014d565b005b61009d61042f565b005b34156100aa57600080fd5b6100b261043a565b6040518082815260200191505060405180910390f35b34156100d357600080fd5b61014b600480803573ffffffffffffffffffffffffffffffffffffffff1690602001909190803590602001909190803590602001908201803590602001908080601f01602080910402602001604051908101604052809392919081815260200183838082843782019150505050505091905050610444565b005b60008060055411151561015f57600080fd5b6001544310158015610172575060025443105b151561017d57600080fd5b813460008111151561018b57fe5b6101a0600354826104bf90919063ffffffff16565b905080600454101515156101b057fe5b61020281600660008573ffffffffffffffffffffffffffffffffffffffff1673ffffffffffffffffffffffffffffffffffffffff168152602001908152602001600020546104f790919063ffffffff16565b6004541015151561020f57fe5b610224600354346104bf90919063ffffffff16565b92506000809054906101000a900473ffffffffffffffffffffffffffffffffffffffff1673ffffffffffffffffffffffffffffffffffffffff1663a9059cbb85856000604051602001526040518363ffffffff167c0100000000000000000000000000000000000000000000000000000000028152600401808373ffffffffffffffffffffffffffffffffffffffff1673ffffffffffffffffffffffffffffffffffffffff16815260200182815260200192505050602060405180830381600087803b15156102f257600080fd5b6102c65a03f1151561030357600080fd5b50505060405180519050506103238360055461051090919063ffffffff16565b60058190555061037b83600660008773ffffffffffffffffffffffffffffffffffffffff1673ffffffffffffffffffffffffffffffffffffffff168152602001908152602001600020546104f790919063ffffffff16565b600660008673ffffffffffffffffffffffffffffffffffffffff1673ffffffffffffffffffffffffffffffffffffffff168152602001908152602001600020819055507fe3d4187f6ca4248660cc0ac8b8056515bac4a8132be2eca31d6d0cc170722a7e8484604051808373ffffffffffffffffffffffffffffffffffffffff1673ffffffffffffffffffffffffffffffffffffffff1681526020018281526020019250505060405180910390a150505050565b6104383361014d565b565b6000600554905090565b6000809054906101000a900473ffffffffffffffffffffffffffffffffffffffff1673ffffffffffffffffffffffffffffffffffffffff163373ffffffffffffffffffffffffffffffffffffffff1614151561049f57600080fd5b6104b4826005546104f790919063ffffffff16565b600581905550505050565b600080821180156104db5750600082848115156104d857fe5b06145b15156104e357fe5b81838115156104ee57fe5b04905092915050565b6000818301905082811015151561050a57fe5b92915050565b600082821115151561051e57fe5b8183039050929150505600a165627a7a7230582089440679a9afd0b024a3bc8640f792107680797f833cc3f051d624f126ff51f00029",
  "source": "pragma solidity ^0.4.4;\r\n\r\nimport \"./ERC223ReceivingContract.sol\";\r\nimport \"./SafeMath.sol\";\r\nimport \"./ERC20.sol\";\r\nimport \"./Token.sol\";\r\n\r\ncontract Crowdsale is ERC223ReceivingContract {\r\n\r\n  using SafeMath for uint;\r\n\r\n  Token private _token;\r\n\r\n  uint private _start;\r\n  uint private _end;\r\n\r\n  uint private _price;\r\n  uint private _limit;\r\n  uint private _available;\r\n\r\n  mapping (address => uint) private _limits;\r\n\r\n  event Buy(address beneficiary, uint amount);\r\n\r\n  modifier available() {\r\n    require(_available > 0);\r\n    require(block.number >= _start && block.number < _end);\r\n    _;\r\n  }\r\n\r\n  modifier isToken() {\r\n    require(msg.sender == address(_token));\r\n    _;\r\n  }\r\n\r\n  modifier valid(address to, uint amount) {\r\n    assert(amount > 0);\r\n    amount = amount.div(_price);\r\n    assert(_limit >= amount);\r\n    assert(_limit >= _limits[to].add(amount));\r\n    _;\r\n  }\r\n\r\n  function Crowdsale(address token, uint start, uint end, uint price, uint limit)\r\n      public {\r\n      _token = Token(token);\r\n      _start = start;\r\n      _end = end;\r\n      _price = price;\r\n      _limit = limit;\r\n  }\r\n\r\n  function ()\r\n      public\r\n      payable {\r\n      // Not enough gas for the transaction so prevent users from sending ether\r\n      revert();\r\n  }\r\n\r\n  function buy()\r\n      public\r\n      payable {\r\n      return buyFor(msg.sender);\r\n  }\r\n\r\n  function buyFor(address beneficiary)\r\n      public\r\n      available\r\n      valid(beneficiary, msg.value)\r\n      payable {\r\n      uint amount = msg.value.div(_price);\r\n      _token.transfer(beneficiary, amount);\r\n      _available = _available.sub(amount);\r\n      _limits[beneficiary] = _limits[beneficiary].add(amount);\r\n      Buy(beneficiary, amount);\r\n  }\r\n\r\n  function tokenFallback(address, uint _value, bytes)\r\n      isToken\r\n      public {\r\n      _available = _available.add(_value);\r\n  }\r\n\r\n  function availableBalance()\r\n    view\r\n    public\r\n    returns (uint) {\r\n    return _available;\r\n  }\r\n}\r\n",
  "sourcePath": "C:\\Users\\Majd\\EthereumM\\contracts\\Crowdsale.sol",
  "compiler": {
    "name": "solc",
    "version": "0.4.19+commit.c4cbbb05.Emscripten.clang"
  },
  "schemaVersion": "1.0.1",
  "updatedAt": "2018-02-12T14:55:43.229Z"
}